:060000000C9477000C9443
:1000060000000C9400000C94A4000C9400000C94C6
:1000160000000C9400000C9400000C9400000C945A
:1000260000000C9400000C9400000C9400000C944A
:1000360000000C9400000C9400000C9400000C943A
:1000460000000C9400000C9400000C940000FEFDCF
:10005600FBF73738392F3435362A3132332D4330D2
:100066003D2BFFFFFFFFFFFFFFFFFFFF506C6561AA
:1000760073652063686F6F73652061206E657720F6
:1000860070617373776F72640050617373776F7208
:100096006420536574656420537563636573736682
:1000A600756C6C7900506C6561736520696E73655B
:1000B600727420796F75722070617373776F7264D2
:1000C600006F6B0050617373776F72642077726F85
:1000D6006E6720212121000080C00A00040068000C
:1000E60002006002DE000000F894EE27ECBBF1E0AF
:1000F600FBBFEBBFE5BF8DE0A2E0BB27ED938A9582
:10010600E9F780E098E0A0E6ED930197E9F7E0EEE5
:10011600F0E085919591009761F0A591B5910590D4
:100126001590BF01F00105900D920197E1F7FB01D3
:10013600F0CFEFE5EDBFE8E0EEBFC0E6D2E00C940D
:10014600F3010A921A92FA926A937A938A939A938D
:10015600AA93BA93EA93FA93EFB7EA930E946903D4
:1001660010E0143008F029C1E12FF0E0EC5AFF4FFF
:10017600049002BA30B3307F303F09F41CC1849B2F
:1001860000E0859B01E0869B02E0879B03E00E94DE
:10019600B502A334C9F40E943E02A8E0B0E00E9472
:1001A600C302A0E0B0E00E94C302A2E0B0E00E9459
:1001B600C302A4E0B0E00E94C302A6E0B0E00E9441
:1001C600C302A2E7B0E0F3C00E94C80229F4E1E04E
:1001D600F0E0E415F50509F00DC04DD10E94B50219
:1001E6000E94D002A0E0B0E0F0E00E945003E2E0FE
:1001F600F0E093C00E94C80229F4E2E0F0E0E415C2
:10020600F50509F00CC00E94B5020E94D002A2E0DA
:10021600B0E0F0E00E945003E3E0F0E07EC00E9410
:10022600C80229F4E3E0F0E0E415F50509F00CC096
:100236000E94B5020E94D002A4E0B0E0F0E00E9465
:100246005003E4E0F0E069C00E94C80229F4E4E04B
:10025600F0E0E415F50509F018C00E94E002E4910B
:10026600A6E0B0E0F0E00E94500305D1AFE8B0E0B0
:1002760030D1A8E0B0E0E1E0F0E00E9450032F01A9
:10028600A0EDB7E00E94ED0249C00E94F50229F4F4
:10029600E1E0F0E0E415F50509F00AC0ECD00E94B3
:1002A600B5020E94FB0264907724E2E0F0E035C0DC
:1002B6000E94F50229F4E2E0F0E0E415F50509F004
:1002C60009C00E94B5020E94FB0284909924E3E0D3
:1002D600F0E023C00E94F50229F4E3E0F0E0E41523
:1002E600F50509F009C00E94B5020E94FB02A49020
:1002F600BB24E4E0F0E011C00E94F50229F4E4E03A
:10030600F0E0E415F50509F009C00E94B5020E9467
:10031600FB02C490DD24E5E0F0E02F010E94B50267
:10032600AD3309F048C00E94FE0299F50E9405030C
:1003360039F50E940C03D9F40E94130379F49BD07B
:10034600A7ECB0E00E941A03E1E0F0E02F01C099AB
:1003560002C0C09A02C0C099C09808C00E94130388
:1003660029F00E941F03E1E0F0E02F0108C00E947F
:100376000C0329F00E941F03E1E0F0E02F0108C002
:100386000E94050329F00E941F03E1E0F0E02F011F
:1003960012C00E94FE0279F06ED0AAECB0E099D0AD
:1003A600ACEDB5E00E94310366D0ABEAB0E091D087
:1003B600E1E0F0E02F011F5FD4CEE0EFE2BB0E9448
:1003C6006E032496E991EFBFF991E991B991A9914C
:1003D6009991899179916991F99019900990189557
:1003E600E0E0EABBEBBBE3E0E7BBE2E0E8BBEFE063
:1003F600E1BBE0EFE2BBEBB7E062EBBFE0E0E5BFFD
:10040600E4BFE0E2EABFA0E177D078940E94AD02B3
:10041600FDCFFFCFAA93EBB3EF70AE2FE881E07F5D
:10042600EA2BEBBB82E08A95F1F7DA9A82E08A95AD
:10043600F1F7DA9882E08A95F1F78AC0AA93A88143
:10044600E9DFE881E295E883A881E4DF81E18A9526
:10045600F1F77EC0AA93E881F0E0E05AFD4FE08113
:10046600A981AE0FEBDFE981E0936402E881E093B6
:10047600650222960895A2E00E942403ACE0DEDF26
:10048600A1E00E942403E0E0E0936502E0936402A9
:100496000895AA93A881AA3031F0E0916602A0914E
:1004A6006402AE1760F0E0E0EA93A0916502AF5FE8
:1004B600A0936502CFDFA881AA3009F449C0E09174
:1004C6006402EF5FE0936402D89AA881B7DFD898F8
:1004D6003FC0BA93AA931A93E981FA813196E983C8
:1004E600FA833197E4911E2FE03019F0A12FD1DF66
:1004F600F3CF188123960895AA93EAB3E06FEABB77
:10050600D29AD09AD19ADA98D898D998E881E09375
:100516006602E058E0936202E881E054E0936302E9
:10052600A4E1B0E00E9431030E942A030E942A033C
:100536000E942A03A0E26EDF81E28A95F1F7A8E223
:100546007DDFA4E07BDFA5E879DFA6E077DF93DF38
:1005560021960895E5B7EF78E5BFEFB778948895CB
:10056600EFBF0895E12FA8E5B0E0F0E00E943B035D
:10057600AE0FBF1FE02FF0E0EA0FFB1FA491089516
:10058600EFEFFFEF0E9450030895A8E0B0E00E944D
:100596004003EF3FAFEFFA0708950E944C02E12FA8
:1005A600A8E5B0E0F0E00E943B03AE0FBF1FE02FCE
:1005B600F0E0EA0FFB1FE4910895E12FA8E5B0E013
:1005C600F0E00E943B03AE0FBF1FE02FF0E0EA0F02
:1005D600FB1F08950E9431030E943E02ABEAB0E081
:1005E6000C946C02A8E0B0E00E9440033197089595
:1005F6000E944C02E2CFA0E0B0E00E9440036E16DB
:100606007F060895A2E0B0E00E9440038E169F0682
:100616000895A4E0B0E00E944003AE16BF06089518
:10062600A6E0B0E00E944003CE16DF0608950E94C1
:100636006C02ACEDB5E0CECF0E943E02AAECB0E073
:10064600F6CF0E942102A3E0B0E00C943103A0E3B0
:100656000E940D0281E28A95F1F70895109639F00D
:100666008AEF90E00197F1F7A8951197C9F70895D9
:10067600EE0FFF1FEE0FFF1F0895119602D0FE2FFB
:100686001197E199FECFFF93FFB7F894AEBBBFBBBE
:10069600E09AEDB3FFBFFF91089507D01196EF934F
:1006A600EF2F03D0EF9111970895E19B02C0A89513
:1006B600FCCF9FB7F894AEBBBFBBE09A8DB3E817EB
:1006C60019F0EDBBE29AE19A9FBF08953A932A93F7
:1006D6001A930A9308953B812A8119810881089506
:00000001FF
